{
  "_format": "hh-sol-artifact-1",
  "contractName": "NFTMarketplace",
  "sourceName": "contracts/NFTMarketplace.sol",
  "abi": [
    {
      "inputs": [],
      "stateMutability": "nonpayable",
      "type": "constructor"
    },
    {
      "anonymous": false,
      "inputs": [
        {
          "indexed": true,
          "internalType": "uint256",
          "name": "nftId",
          "type": "uint256"
        },
        {
          "indexed": true,
          "internalType": "address",
          "name": "nftAddress",
          "type": "address"
        },
        {
          "indexed": true,
          "internalType": "uint256",
          "name": "tokenId",
          "type": "uint256"
        },
        {
          "indexed": false,
          "internalType": "address",
          "name": "owner",
          "type": "address"
        },
        {
          "indexed": false,
          "internalType": "address",
          "name": "seller",
          "type": "address"
        },
        {
          "indexed": false,
          "internalType": "uint256",
          "name": "price",
          "type": "uint256"
        },
        {
          "indexed": false,
          "internalType": "bool",
          "name": "isSold",
          "type": "bool"
        }
      ],
      "name": "nftListed",
      "type": "event"
    },
    {
      "inputs": [
        {
          "internalType": "address",
          "name": "nftAddress",
          "type": "address"
        },
        {
          "internalType": "uint256",
          "name": "nftId",
          "type": "uint256"
        }
      ],
      "name": "buyNFT",
      "outputs": [],
      "stateMutability": "payable",
      "type": "function"
    },
    {
      "inputs": [],
      "name": "fetchListedNFTs",
      "outputs": [
        {
          "components": [
            {
              "internalType": "uint256",
              "name": "nftId",
              "type": "uint256"
            },
            {
              "internalType": "address",
              "name": "nftAddress",
              "type": "address"
            },
            {
              "internalType": "uint256",
              "name": "tokenId",
              "type": "uint256"
            },
            {
              "internalType": "address payable",
              "name": "seller",
              "type": "address"
            },
            {
              "internalType": "address payable",
              "name": "owner",
              "type": "address"
            },
            {
              "internalType": "uint256",
              "name": "price",
              "type": "uint256"
            },
            {
              "internalType": "bool",
              "name": "isSold",
              "type": "bool"
            }
          ],
          "internalType": "struct NFTMarketplace.nft[]",
          "name": "",
          "type": "tuple[]"
        }
      ],
      "stateMutability": "view",
      "type": "function"
    },
    {
      "inputs": [],
      "name": "fetchUnsoldNFTs",
      "outputs": [
        {
          "components": [
            {
              "internalType": "uint256",
              "name": "nftId",
              "type": "uint256"
            },
            {
              "internalType": "address",
              "name": "nftAddress",
              "type": "address"
            },
            {
              "internalType": "uint256",
              "name": "tokenId",
              "type": "uint256"
            },
            {
              "internalType": "address payable",
              "name": "seller",
              "type": "address"
            },
            {
              "internalType": "address payable",
              "name": "owner",
              "type": "address"
            },
            {
              "internalType": "uint256",
              "name": "price",
              "type": "uint256"
            },
            {
              "internalType": "bool",
              "name": "isSold",
              "type": "bool"
            }
          ],
          "internalType": "struct NFTMarketplace.nft[]",
          "name": "",
          "type": "tuple[]"
        }
      ],
      "stateMutability": "view",
      "type": "function"
    },
    {
      "inputs": [],
      "name": "fetchUserNFTs",
      "outputs": [
        {
          "components": [
            {
              "internalType": "uint256",
              "name": "nftId",
              "type": "uint256"
            },
            {
              "internalType": "address",
              "name": "nftAddress",
              "type": "address"
            },
            {
              "internalType": "uint256",
              "name": "tokenId",
              "type": "uint256"
            },
            {
              "internalType": "address payable",
              "name": "seller",
              "type": "address"
            },
            {
              "internalType": "address payable",
              "name": "owner",
              "type": "address"
            },
            {
              "internalType": "uint256",
              "name": "price",
              "type": "uint256"
            },
            {
              "internalType": "bool",
              "name": "isSold",
              "type": "bool"
            }
          ],
          "internalType": "struct NFTMarketplace.nft[]",
          "name": "",
          "type": "tuple[]"
        }
      ],
      "stateMutability": "view",
      "type": "function"
    },
    {
      "inputs": [],
      "name": "getListingPrice",
      "outputs": [
        {
          "internalType": "uint256",
          "name": "",
          "type": "uint256"
        }
      ],
      "stateMutability": "view",
      "type": "function"
    },
    {
      "inputs": [
        {
          "internalType": "address",
          "name": "nftAddress",
          "type": "address"
        },
        {
          "internalType": "uint256",
          "name": "tokenId",
          "type": "uint256"
        },
        {
          "internalType": "uint256",
          "name": "price",
          "type": "uint256"
        }
      ],
      "name": "listNFT",
      "outputs": [],
      "stateMutability": "payable",
      "type": "function"
    }
  ],
  "bytecode": "0x6080604052655af3107a400060035534801561001a57600080fd5b50600160008190555033600460006101000a81548173ffffffffffffffffffffffffffffffffffffffff021916908373ffffffffffffffffffffffffffffffffffffffff1602179055506118c9806100736000396000f3fe6080604052600436106100555760003560e01c806312e855851461005a578063831086a214610085578063a82ba76f146100b0578063ad05f1b4146100cc578063d374fa89146100e8578063ef76280f14610113575b600080fd5b34801561006657600080fd5b5061006f61013e565b60405161007c91906115b4565b60405180910390f35b34801561009157600080fd5b5061009a610148565b6040516100a79190611512565b60405180910390f35b6100ca60048036038101906100c59190611212565b6104d6565b005b6100e660048036038101906100e1919061124e565b61078f565b005b3480156100f457600080fd5b506100fd610af9565b60405161010a9190611512565b60405180910390f35b34801561011f57600080fd5b50610128610db5565b6040516101359190611512565b60405180910390f35b6000600354905090565b6060600080600190505b600161015e6001611143565b6101689190611619565b8110156101fb573373ffffffffffffffffffffffffffffffffffffffff166005600083815260200190815260200160002060030160009054906101000a900473ffffffffffffffffffffffffffffffffffffffff1673ffffffffffffffffffffffffffffffffffffffff1614156101e85781806101e4906116fd565b9250505b80806101f3906116fd565b915050610152565b506000808267ffffffffffffffff81111561023f577f4e487b7100000000000000000000000000000000000000000000000000000000600052604160045260246000fd5b60405190808252806020026020018201604052801561027857816020015b610265611167565b81526020019060019003908161025d5790505b5090506000600190505b600161028e6001611143565b6102989190611619565b8110156104cc573373ffffffffffffffffffffffffffffffffffffffff166005600083815260200190815260200160002060030160009054906101000a900473ffffffffffffffffffffffffffffffffffffffff1673ffffffffffffffffffffffffffffffffffffffff1614156104b9576000600560008381526020019081526020016000206040518060e0016040529081600082015481526020016001820160009054906101000a900473ffffffffffffffffffffffffffffffffffffffff1673ffffffffffffffffffffffffffffffffffffffff1673ffffffffffffffffffffffffffffffffffffffff168152602001600282015481526020016003820160009054906101000a900473ffffffffffffffffffffffffffffffffffffffff1673ffffffffffffffffffffffffffffffffffffffff1673ffffffffffffffffffffffffffffffffffffffff1681526020016004820160009054906101000a900473ffffffffffffffffffffffffffffffffffffffff1673ffffffffffffffffffffffffffffffffffffffff1673ffffffffffffffffffffffffffffffffffffffff168152602001600582015481526020016006820160009054906101000a900460ff161515151581525050905080838580610473906116fd565b9650815181106104ac577f4e487b7100000000000000000000000000000000000000000000000000000000600052603260045260246000fd5b6020026020010181905250505b80806104c4906116fd565b915050610282565b5080935050505090565b6002600054141561051c576040517f08c379a000000000000000000000000000000000000000000000000000000000815260040161051390611574565b60405180910390fd5b600260008190555060006005600083815260200190815260200160002060050154905060006005600084815260200190815260200160002060020154905081341461059c576040517f08c379a000000000000000000000000000000000000000000000000000000000815260040161059390611554565b60405180910390fd5b6005600084815260200190815260200160002060030160009054906101000a900473ffffffffffffffffffffffffffffffffffffffff1673ffffffffffffffffffffffffffffffffffffffff166108fc349081150290604051600060405180830381858888f19350505050158015610618573d6000803e3d6000fd5b508373ffffffffffffffffffffffffffffffffffffffff166323b872dd3033846040518463ffffffff1660e01b815260040161065693929190611496565b600060405180830381600087803b15801561067057600080fd5b505af1158015610684573d6000803e3d6000fd5b50505050336005600085815260200190815260200160002060040160006101000a81548173ffffffffffffffffffffffffffffffffffffffff021916908373ffffffffffffffffffffffffffffffffffffffff16021790555060016005600085815260200190815260200160002060060160006101000a81548160ff0219169083151502179055506107166002611151565b600460009054906101000a900473ffffffffffffffffffffffffffffffffffffffff1673ffffffffffffffffffffffffffffffffffffffff166108fc6003549081150290604051600060405180830381858888f19350505050158015610780573d6000803e3d6000fd5b50505060016000819055505050565b600260005414156107d5576040517f08c379a00000000000000000000000000000000000000000000000000000000081526004016107cc90611574565b60405180910390fd5b600260008190555066038d7ea4c680008111610826576040517f08c379a000000000000000000000000000000000000000000000000000000000815260040161081d90611594565b60405180910390fd5b600354341461086a576040517f08c379a000000000000000000000000000000000000000000000000000000000815260040161086190611534565b60405180910390fd5b6108746001611151565b60006108806001611143565b90506040518060e001604052808281526020018573ffffffffffffffffffffffffffffffffffffffff1681526020018481526020013373ffffffffffffffffffffffffffffffffffffffff168152602001600073ffffffffffffffffffffffffffffffffffffffff16815260200183815260200160001515815250600560008381526020019081526020016000206000820151816000015560208201518160010160006101000a81548173ffffffffffffffffffffffffffffffffffffffff021916908373ffffffffffffffffffffffffffffffffffffffff1602179055506040820151816002015560608201518160030160006101000a81548173ffffffffffffffffffffffffffffffffffffffff021916908373ffffffffffffffffffffffffffffffffffffffff16021790555060808201518160040160006101000a81548173ffffffffffffffffffffffffffffffffffffffff021916908373ffffffffffffffffffffffffffffffffffffffff16021790555060a0820151816005015560c08201518160060160006101000a81548160ff0219169083151502179055509050508373ffffffffffffffffffffffffffffffffffffffff166323b872dd3330866040518463ffffffff1660e01b8152600401610a6193929190611496565b600060405180830381600087803b158015610a7b57600080fd5b505af1158015610a8f573d6000803e3d6000fd5b50505050828473ffffffffffffffffffffffffffffffffffffffff16827f5c119a4332aa7dfeb9499be306836b50213772196c03252a9f2739a22a7e803f336000876000604051610ae394939291906114cd565b60405180910390a4506001600081905550505050565b60606000610b076002611143565b610b116001611143565b610b1b919061166f565b90506000808267ffffffffffffffff811115610b60577f4e487b7100000000000000000000000000000000000000000000000000000000600052604160045260246000fd5b604051908082528060200260200182016040528015610b9957816020015b610b86611167565b815260200190600190039081610b7e5790505b5090506000600190505b6001610baf6001611143565b610bb99190611619565b811015610dab576005600082815260200190815260200160002060060160009054906101000a900460ff16610d98576000600560008381526020019081526020016000206040518060e0016040529081600082015481526020016001820160009054906101000a900473ffffffffffffffffffffffffffffffffffffffff1673ffffffffffffffffffffffffffffffffffffffff1673ffffffffffffffffffffffffffffffffffffffff168152602001600282015481526020016003820160009054906101000a900473ffffffffffffffffffffffffffffffffffffffff1673ffffffffffffffffffffffffffffffffffffffff1673ffffffffffffffffffffffffffffffffffffffff1681526020016004820160009054906101000a900473ffffffffffffffffffffffffffffffffffffffff1673ffffffffffffffffffffffffffffffffffffffff1673ffffffffffffffffffffffffffffffffffffffff168152602001600582015481526020016006820160009054906101000a900460ff161515151581525050905080838580610d52906116fd565b965081518110610d8b577f4e487b7100000000000000000000000000000000000000000000000000000000600052603260045260246000fd5b6020026020010181905250505b8080610da3906116fd565b915050610ba3565b5080935050505090565b6060600080600190505b6001610dcb6001611143565b610dd59190611619565b811015610e68573373ffffffffffffffffffffffffffffffffffffffff166005600083815260200190815260200160002060040160009054906101000a900473ffffffffffffffffffffffffffffffffffffffff1673ffffffffffffffffffffffffffffffffffffffff161415610e55578180610e51906116fd565b9250505b8080610e60906116fd565b915050610dbf565b506000808267ffffffffffffffff811115610eac577f4e487b7100000000000000000000000000000000000000000000000000000000600052604160045260246000fd5b604051908082528060200260200182016040528015610ee557816020015b610ed2611167565b815260200190600190039081610eca5790505b5090506000600190505b6001610efb6001611143565b610f059190611619565b811015611139573373ffffffffffffffffffffffffffffffffffffffff166005600083815260200190815260200160002060040160009054906101000a900473ffffffffffffffffffffffffffffffffffffffff1673ffffffffffffffffffffffffffffffffffffffff161415611126576000600560008381526020019081526020016000206040518060e0016040529081600082015481526020016001820160009054906101000a900473ffffffffffffffffffffffffffffffffffffffff1673ffffffffffffffffffffffffffffffffffffffff1673ffffffffffffffffffffffffffffffffffffffff168152602001600282015481526020016003820160009054906101000a900473ffffffffffffffffffffffffffffffffffffffff1673ffffffffffffffffffffffffffffffffffffffff1673ffffffffffffffffffffffffffffffffffffffff1681526020016004820160009054906101000a900473ffffffffffffffffffffffffffffffffffffffff1673ffffffffffffffffffffffffffffffffffffffff1673ffffffffffffffffffffffffffffffffffffffff168152602001600582015481526020016006820160009054906101000a900460ff1615151515815250509050808385806110e0906116fd565b965081518110611119577f4e487b7100000000000000000000000000000000000000000000000000000000600052603260045260246000fd5b6020026020010181905250505b8080611131906116fd565b915050610eef565b5080935050505090565b600081600001549050919050565b6001816000016000828254019250508190555050565b6040518060e0016040528060008152602001600073ffffffffffffffffffffffffffffffffffffffff16815260200160008152602001600073ffffffffffffffffffffffffffffffffffffffff168152602001600073ffffffffffffffffffffffffffffffffffffffff168152602001600081526020016000151581525090565b6000813590506111f781611865565b92915050565b60008135905061120c8161187c565b92915050565b6000806040838503121561122557600080fd5b6000611233858286016111e8565b9250506020611244858286016111fd565b9150509250929050565b60008060006060848603121561126357600080fd5b6000611271868287016111e8565b9350506020611282868287016111fd565b9250506040611293868287016111fd565b9150509250925092565b60006112a983836113ea565b60e08301905092915050565b6112be816116b5565b82525050565b6112cd816116a3565b82525050565b6112dc816116a3565b82525050565b60006112ed826115df565b6112f781856115f7565b9350611302836115cf565b8060005b8381101561133357815161131a888261129d565b9750611325836115ea565b925050600181019050611306565b5085935050505092915050565b611349816116c7565b82525050565b611358816116c7565b82525050565b600061136b601683611608565b915061137682611775565b602082019050919050565b600061138e603383611608565b91506113998261179e565b604082019050919050565b60006113b1601f83611608565b91506113bc826117ed565b602082019050919050565b60006113d4602683611608565b91506113df82611816565b604082019050919050565b60e0820160008201516114006000850182611478565b50602082015161141360208501826112c4565b5060408201516114266040850182611478565b50606082015161143960608501826112b5565b50608082015161144c60808501826112b5565b5060a082015161145f60a0850182611478565b5060c082015161147260c0850182611340565b50505050565b611481816116f3565b82525050565b611490816116f3565b82525050565b60006060820190506114ab60008301866112d3565b6114b860208301856112d3565b6114c56040830184611487565b949350505050565b60006080820190506114e260008301876112d3565b6114ef60208301866112d3565b6114fc6040830185611487565b611509606083018461134f565b95945050505050565b6000602082019050818103600083015261152c81846112e2565b905092915050565b6000602082019050818103600083015261154d8161135e565b9050919050565b6000602082019050818103600083015261156d81611381565b9050919050565b6000602082019050818103600083015261158d816113a4565b9050919050565b600060208201905081810360008301526115ad816113c7565b9050919050565b60006020820190506115c96000830184611487565b92915050565b6000819050602082019050919050565b600081519050919050565b6000602082019050919050565b600082825260208201905092915050565b600082825260208201905092915050565b6000611624826116f3565b915061162f836116f3565b9250827fffffffffffffffffffffffffffffffffffffffffffffffffffffffffffffffff0382111561166457611663611746565b5b828201905092915050565b600061167a826116f3565b9150611685836116f3565b92508282101561169857611697611746565b5b828203905092915050565b60006116ae826116d3565b9050919050565b60006116c0826116d3565b9050919050565b60008115159050919050565b600073ffffffffffffffffffffffffffffffffffffffff82169050919050565b6000819050919050565b6000611708826116f3565b91507fffffffffffffffffffffffffffffffffffffffffffffffffffffffffffffffff82141561173b5761173a611746565b5b600182019050919050565b7f4e487b7100000000000000000000000000000000000000000000000000000000600052601160045260246000fd5b7f53656e7420746865206c697374696e6720707269636500000000000000000000600082015250565b7f5072696365206d75737420626520657175616c20746f207468652073656c6c6960008201527f6e67207072696365206f6620746865204e465400000000000000000000000000602082015250565b7f5265656e7472616e637947756172643a207265656e7472616e742063616c6c00600082015250565b7f5072696365206d7573742062652067726561746572207468616e20302e30303160008201527f204d415449430000000000000000000000000000000000000000000000000000602082015250565b61186e816116a3565b811461187957600080fd5b50565b611885816116f3565b811461189057600080fd5b5056fea2646970667358221220dba8624f5b412eeffad20dd9bb72a24dcec8b8856572c368608200b7057d463d64736f6c63430008040033",
  "linkReferences": {},
  "deployedLinkReferences": {}
}